{
	"_format": "hh-sol-artifact-1",
	"contractName": "WavePortal",
	"sourceName": "contracts/WavePortal.sol",
	"abi": [
		{
			"inputs": [],
			"stateMutability": "payable",
			"type": "constructor"
		},
		{
			"anonymous": false,
			"inputs": [
				{
					"indexed": true,
					"internalType": "address",
					"name": "from",
					"type": "address"
				},
				{
					"indexed": false,
					"internalType": "uint256",
					"name": "timestamp",
					"type": "uint256"
				},
				{
					"indexed": false,
					"internalType": "string",
					"name": "message",
					"type": "string"
				}
			],
			"name": "NewWave",
			"type": "event"
		},
		{
			"inputs": [],
			"name": "getAllWaves",
			"outputs": [
				{
					"components": [
						{
							"internalType": "address",
							"name": "waver",
							"type": "address"
						},
						{
							"internalType": "string",
							"name": "message",
							"type": "string"
						},
						{
							"internalType": "uint256",
							"name": "timestamp",
							"type": "uint256"
						}
					],
					"internalType": "struct WavePortal.Wave[]",
					"name": "",
					"type": "tuple[]"
				}
			],
			"stateMutability": "view",
			"type": "function"
		},
		{
			"inputs": [],
			"name": "getTotalWaves",
			"outputs": [
				{
					"internalType": "uint256",
					"name": "",
					"type": "uint256"
				}
			],
			"stateMutability": "view",
			"type": "function"
		},
		{
			"inputs": [
				{
					"internalType": "string",
					"name": "message",
					"type": "string"
				}
			],
			"name": "visitorMessage",
			"outputs": [],
			"stateMutability": "view",
			"type": "function"
		},
		{
			"inputs": [
				{
					"internalType": "string",
					"name": "_message",
					"type": "string"
				}
			],
			"name": "wave",
			"outputs": [],
			"stateMutability": "nonpayable",
			"type": "function"
		}
	],
	"bytecode": "0x60806040526200004f6040518060400160405280600581526020017f596f20796f0000000000000000000000000000000000000000000000000000008152506200005560201b6200051b1760201c565b620001e9565b620000f5816040516024016200006c919062000162565b6040516020818303038152906040527f41304fac000000000000000000000000000000000000000000000000000000007bffffffffffffffffffffffffffffffffffffffffffffffffffffffff19166020820180517bffffffffffffffffffffffffffffffffffffffffffffffffffffffff8381831617835250505050620000f860201b60201c565b50565b60008151905060006a636f6e736f6c652e6c6f679050602083016000808483855afa5050505050565b60006200012e8262000186565b6200013a818562000191565b93506200014c818560208601620001a2565b6200015781620001d8565b840191505092915050565b600060208201905081810360008301526200017e818462000121565b905092915050565b600081519050919050565b600082825260208201905092915050565b60005b83811015620001c2578082015181840152602081019050620001a5565b83811115620001d2576000848401525b50505050565b6000601f19601f8301169050919050565b610fdf80620001f96000396000f3fe608060405234801561001057600080fd5b506004361061004c5760003560e01c8063449d46c0146100515780639a2cdc081461006d578063bd43a9081461008b578063bf2e1560146100a9575b600080fd5b61006b600480360381019061006691906108bf565b6100c5565b005b61007561033c565b6040516100829190610c2e565b60405180910390f35b610093610387565b6040516100a09190610b05565b60405180910390f35b6100c360048036038101906100be91906108bf565b6104d8565b005b6000808154809291906100d790610e21565b919050555061011b6040518060400160405280600c81526020017f2573206861732077617665640000000000000000000000000000000000000000815250336105b4565b6000429050600160405180606001604052803373ffffffffffffffffffffffffffffffffffffffff16815260200184815260200183815250908060018154018082558091505060019003906000526020600020906003020160009091909190915060008201518160000160006101000a81548173ffffffffffffffffffffffffffffffffffffffff021916908373ffffffffffffffffffffffffffffffffffffffff16021790555060208201518160010190805190602001906101df9291906107b4565b506040820151816002015550503373ffffffffffffffffffffffffffffffffffffffff167f5f7e16dc676677766a70e9c5628aa6c54ddb8b6e5188e2ae1e1f17f1ffbea7168284604051610234929190610c49565b60405180910390a26000655af3107a400090504781111561028a576040517f08c379a000000000000000000000000000000000000000000000000000000000815260040161028190610bee565b60405180910390fd5b60003373ffffffffffffffffffffffffffffffffffffffff16826040516102b090610af0565b60006040518083038185875af1925050503d80600081146102ed576040519150601f19603f3d011682016040523d82523d6000602084013e6102f2565b606091505b5050905080610336576040517f08c379a000000000000000000000000000000000000000000000000000000000815260040161032d90610c0e565b60405180910390fd5b50505050565b600061037f6040518060400160405280601781526020017f5765206861766520256420746f74616c20776176657321000000000000000000815250600054610650565b600054905090565b60606001805480602002602001604051908101604052809291908181526020016000905b828210156104cf57838290600052602060002090600302016040518060600160405290816000820160009054906101000a900473ffffffffffffffffffffffffffffffffffffffff1673ffffffffffffffffffffffffffffffffffffffff1673ffffffffffffffffffffffffffffffffffffffff16815260200160018201805461043490610dbe565b80601f016020809104026020016040519081016040528092919081815260200182805461046090610dbe565b80156104ad5780601f10610482576101008083540402835291602001916104ad565b820191906000526020600020905b81548152906001019060200180831161049057829003601f168201915b50505050508152602001600282015481525050815260200190600101906103ab565b50505050905090565b6105186040518060400160405280601981526020017f257320686173206c6566742061206d6573736167653a2025730000000000000081525033836106ec565b50565b6105b18160405160240161052f9190610b27565b6040516020818303038152906040527f41304fac000000000000000000000000000000000000000000000000000000007bffffffffffffffffffffffffffffffffffffffffffffffffffffffff19166020820180517bffffffffffffffffffffffffffffffffffffffffffffffffffffffff838183161783525050505061078b565b50565b61064c82826040516024016105ca929190610b49565b6040516020818303038152906040527f319af333000000000000000000000000000000000000000000000000000000007bffffffffffffffffffffffffffffffffffffffffffffffffffffffff19166020820180517bffffffffffffffffffffffffffffffffffffffffffffffffffffffff838183161783525050505061078b565b5050565b6106e88282604051602401610666929190610bbe565b6040516020818303038152906040527f9710a9d0000000000000000000000000000000000000000000000000000000007bffffffffffffffffffffffffffffffffffffffffffffffffffffffff19166020820180517bffffffffffffffffffffffffffffffffffffffffffffffffffffffff838183161783525050505061078b565b5050565b61078683838360405160240161070493929190610b79565b6040516020818303038152906040527fe0e9ad4f000000000000000000000000000000000000000000000000000000007bffffffffffffffffffffffffffffffffffffffffffffffffffffffff19166020820180517bffffffffffffffffffffffffffffffffffffffffffffffffffffffff838183161783525050505061078b565b505050565b60008151905060006a636f6e736f6c652e6c6f679050602083016000808483855afa5050505050565b8280546107c090610dbe565b90600052602060002090601f0160209004810192826107e25760008555610829565b82601f106107fb57805160ff1916838001178555610829565b82800160010185558215610829579182015b8281111561082857825182559160200191906001019061080d565b5b509050610836919061083a565b5090565b5b8082111561085357600081600090555060010161083b565b5090565b600061086a61086584610c9e565b610c79565b90508281526020810184848401111561088257600080fd5b61088d848285610d7c565b509392505050565b600082601f8301126108a657600080fd5b81356108b6848260208601610857565b91505092915050565b6000602082840312156108d157600080fd5b600082013567ffffffffffffffff8111156108eb57600080fd5b6108f784828501610895565b91505092915050565b600061090c8383610a82565b905092915050565b61091d81610d40565b82525050565b61092c81610d40565b82525050565b600061093d82610cdf565b6109478185610d02565b93508360208202850161095985610ccf565b8060005b8581101561099557848403895281516109768582610900565b945061098183610cf5565b925060208a0199505060018101905061095d565b50829750879550505050505092915050565b60006109b282610cea565b6109bc8185610d1e565b93506109cc818560208601610d8b565b6109d581610ef7565b840191505092915050565b60006109eb82610cea565b6109f58185610d2f565b9350610a05818560208601610d8b565b610a0e81610ef7565b840191505092915050565b6000610a26603483610d2f565b9150610a3182610f08565b604082019050919050565b6000610a49602a83610d2f565b9150610a5482610f57565b604082019050919050565b6000610a6c600083610d13565b9150610a7782610fa6565b600082019050919050565b6000606083016000830151610a9a6000860182610914565b5060208301518482036020860152610ab282826109a7565b9150506040830151610ac76040860182610ad2565b508091505092915050565b610adb81610d72565b82525050565b610aea81610d72565b82525050565b6000610afb82610a5f565b9150819050919050565b60006020820190508181036000830152610b1f8184610932565b905092915050565b60006020820190508181036000830152610b4181846109e0565b905092915050565b60006040820190508181036000830152610b6381856109e0565b9050610b726020830184610923565b9392505050565b60006060820190508181036000830152610b9381866109e0565b9050610ba26020830185610923565b8181036040830152610bb481846109e0565b9050949350505050565b60006040820190508181036000830152610bd881856109e0565b9050610be76020830184610ae1565b9392505050565b60006020820190508181036000830152610c0781610a19565b9050919050565b60006020820190508181036000830152610c2781610a3c565b9050919050565b6000602082019050610c436000830184610ae1565b92915050565b6000604082019050610c5e6000830185610ae1565b8181036020830152610c7081846109e0565b90509392505050565b6000610c83610c94565b9050610c8f8282610df0565b919050565b6000604051905090565b600067ffffffffffffffff821115610cb957610cb8610ec8565b5b610cc282610ef7565b9050602081019050919050565b6000819050602082019050919050565b600081519050919050565b600081519050919050565b6000602082019050919050565b600082825260208201905092915050565b600081905092915050565b600082825260208201905092915050565b600082825260208201905092915050565b6000610d4b82610d52565b9050919050565b600073ffffffffffffffffffffffffffffffffffffffff82169050919050565b6000819050919050565b82818337600083830152505050565b60005b83811015610da9578082015181840152602081019050610d8e565b83811115610db8576000848401525b50505050565b60006002820490506001821680610dd657607f821691505b60208210811415610dea57610de9610e99565b5b50919050565b610df982610ef7565b810181811067ffffffffffffffff82111715610e1857610e17610ec8565b5b80604052505050565b6000610e2c82610d72565b91507fffffffffffffffffffffffffffffffffffffffffffffffffffffffffffffffff821415610e5f57610e5e610e6a565b5b600182019050919050565b7f4e487b7100000000000000000000000000000000000000000000000000000000600052601160045260246000fd5b7f4e487b7100000000000000000000000000000000000000000000000000000000600052602260045260246000fd5b7f4e487b7100000000000000000000000000000000000000000000000000000000600052604160045260246000fd5b6000601f19601f8301169050919050565b7f547279696e6720746f207769746864726177206d6f7265206d6f6e657920746860008201527f616e2074686520636f6e7472616374206861732e000000000000000000000000602082015250565b7f4661696c656420746f207769746864726177206d6f6e65792066726f6d20746860008201527f6520636f6e747261637400000000000000000000000000000000000000000000602082015250565b5056fea26469706673582212207eb4f789062e194de66114307c04bf06cb787cba5a9ee7c81ee1e84f7c7600c564736f6c63430008040033",
	"linkReferences": {},
	"deployedLinkReferences": {}
}