{
	"_format": "hh-sol-artifact-1",
	"contractName": "WavePortal",
	"sourceName": "contracts/WavePortal.sol",
	"abi": [
		{
			"inputs": [],
			"stateMutability": "nonpayable",
			"type": "constructor"
		},
		{
			"anonymous": false,
			"inputs": [
				{
					"indexed": true,
					"internalType": "address",
					"name": "from",
					"type": "address"
				},
				{
					"indexed": false,
					"internalType": "uint256",
					"name": "timestamp",
					"type": "uint256"
				},
				{
					"indexed": false,
					"internalType": "string",
					"name": "message",
					"type": "string"
				}
			],
			"name": "NewWave",
			"type": "event"
		},
		{
			"inputs": [],
			"name": "getAllWaves",
			"outputs": [
				{
					"components": [
						{
							"internalType": "address",
							"name": "waver",
							"type": "address"
						},
						{
							"internalType": "string",
							"name": "message",
							"type": "string"
						},
						{
							"internalType": "uint256",
							"name": "timestamp",
							"type": "uint256"
						}
					],
					"internalType": "struct WavePortal.Wave[]",
					"name": "",
					"type": "tuple[]"
				}
			],
			"stateMutability": "view",
			"type": "function"
		},
		{
			"inputs": [],
			"name": "getTotalWaves",
			"outputs": [
				{
					"internalType": "uint256",
					"name": "",
					"type": "uint256"
				}
			],
			"stateMutability": "view",
			"type": "function"
		},
		{
			"inputs": [
				{
					"internalType": "string",
					"name": "message",
					"type": "string"
				}
			],
			"name": "visitorMessage",
			"outputs": [],
			"stateMutability": "view",
			"type": "function"
		},
		{
			"inputs": [
				{
					"internalType": "string",
					"name": "_message",
					"type": "string"
				}
			],
			"name": "wave",
			"outputs": [],
			"stateMutability": "nonpayable",
			"type": "function"
		}
	],
	"bytecode": "0x60806040523480156200001157600080fd5b506200005d6040518060400160405280600581526020017f596f20796f0000000000000000000000000000000000000000000000000000008152506200006360201b6200041f1760201c565b620001f7565b62000103816040516024016200007a919062000170565b6040516020818303038152906040527f41304fac000000000000000000000000000000000000000000000000000000007bffffffffffffffffffffffffffffffffffffffffffffffffffffffff19166020820180517bffffffffffffffffffffffffffffffffffffffffffffffffffffffff83818316178352505050506200010660201b60201c565b50565b60008151905060006a636f6e736f6c652e6c6f679050602083016000808483855afa5050505050565b60006200013c8262000194565b6200014881856200019f565b93506200015a818560208601620001b0565b6200016581620001e6565b840191505092915050565b600060208201905081810360008301526200018c81846200012f565b905092915050565b600081519050919050565b600082825260208201905092915050565b60005b83811015620001d0578082015181840152602081019050620001b3565b83811115620001e0576000848401525b50505050565b6000601f19601f8301169050919050565b610d7980620002076000396000f3fe608060405234801561001057600080fd5b506004361061004c5760003560e01c8063449d46c0146100515780639a2cdc081461006d578063bd43a9081461008b578063bf2e1560146100a9575b600080fd5b61006b600480360381019061006691906107c3565b6100c5565b005b610075610240565b6040516100829190610a74565b60405180910390f35b61009361028b565b6040516100a0919061098b565b60405180910390f35b6100c360048036038101906100be91906107c3565b6103dc565b005b6000808154809291906100d790610c5c565b919050555061011b6040518060400160405280600c81526020017f2573206861732077617665640000000000000000000000000000000000000000815250336104b8565b6000429050600160405180606001604052803373ffffffffffffffffffffffffffffffffffffffff16815260200184815260200183815250908060018154018082558091505060019003906000526020600020906003020160009091909190915060008201518160000160006101000a81548173ffffffffffffffffffffffffffffffffffffffff021916908373ffffffffffffffffffffffffffffffffffffffff16021790555060208201518160010190805190602001906101df9291906106b8565b506040820151816002015550503373ffffffffffffffffffffffffffffffffffffffff167f5f7e16dc676677766a70e9c5628aa6c54ddb8b6e5188e2ae1e1f17f1ffbea7168284604051610234929190610a8f565b60405180910390a25050565b60006102836040518060400160405280601781526020017f5765206861766520256420746f74616c20776176657321000000000000000000815250600054610554565b600054905090565b60606001805480602002602001604051908101604052809291908181526020016000905b828210156103d357838290600052602060002090600302016040518060600160405290816000820160009054906101000a900473ffffffffffffffffffffffffffffffffffffffff1673ffffffffffffffffffffffffffffffffffffffff1673ffffffffffffffffffffffffffffffffffffffff16815260200160018201805461033890610bf9565b80601f016020809104026020016040519081016040528092919081815260200182805461036490610bf9565b80156103b15780601f10610386576101008083540402835291602001916103b1565b820191906000526020600020905b81548152906001019060200180831161039457829003601f168201915b50505050508152602001600282015481525050815260200190600101906102af565b50505050905090565b61041c6040518060400160405280601981526020017f257320686173206c6566742061206d6573736167653a2025730000000000000081525033836105f0565b50565b6104b58160405160240161043391906109ad565b6040516020818303038152906040527f41304fac000000000000000000000000000000000000000000000000000000007bffffffffffffffffffffffffffffffffffffffffffffffffffffffff19166020820180517bffffffffffffffffffffffffffffffffffffffffffffffffffffffff838183161783525050505061068f565b50565b61055082826040516024016104ce9291906109cf565b6040516020818303038152906040527f319af333000000000000000000000000000000000000000000000000000000007bffffffffffffffffffffffffffffffffffffffffffffffffffffffff19166020820180517bffffffffffffffffffffffffffffffffffffffffffffffffffffffff838183161783525050505061068f565b5050565b6105ec828260405160240161056a929190610a44565b6040516020818303038152906040527f9710a9d0000000000000000000000000000000000000000000000000000000007bffffffffffffffffffffffffffffffffffffffffffffffffffffffff19166020820180517bffffffffffffffffffffffffffffffffffffffffffffffffffffffff838183161783525050505061068f565b5050565b61068a838383604051602401610608939291906109ff565b6040516020818303038152906040527fe0e9ad4f000000000000000000000000000000000000000000000000000000007bffffffffffffffffffffffffffffffffffffffffffffffffffffffff19166020820180517bffffffffffffffffffffffffffffffffffffffffffffffffffffffff838183161783525050505061068f565b505050565b60008151905060006a636f6e736f6c652e6c6f679050602083016000808483855afa5050505050565b8280546106c490610bf9565b90600052602060002090601f0160209004810192826106e6576000855561072d565b82601f106106ff57805160ff191683800117855561072d565b8280016001018555821561072d579182015b8281111561072c578251825591602001919060010190610711565b5b50905061073a919061073e565b5090565b5b8082111561075757600081600090555060010161073f565b5090565b600061076e61076984610ae4565b610abf565b90508281526020810184848401111561078657600080fd5b610791848285610bb7565b509392505050565b600082601f8301126107aa57600080fd5b81356107ba84826020860161075b565b91505092915050565b6000602082840312156107d557600080fd5b600082013567ffffffffffffffff8111156107ef57600080fd5b6107fb84828501610799565b91505092915050565b6000610810838361091d565b905092915050565b61082181610b7b565b82525050565b61083081610b7b565b82525050565b600061084182610b25565b61084b8185610b48565b93508360208202850161085d85610b15565b8060005b85811015610899578484038952815161087a8582610804565b945061088583610b3b565b925060208a01995050600181019050610861565b50829750879550505050505092915050565b60006108b682610b30565b6108c08185610b59565b93506108d0818560208601610bc6565b6108d981610d32565b840191505092915050565b60006108ef82610b30565b6108f98185610b6a565b9350610909818560208601610bc6565b61091281610d32565b840191505092915050565b60006060830160008301516109356000860182610818565b506020830151848203602086015261094d82826108ab565b9150506040830151610962604086018261096d565b508091505092915050565b61097681610bad565b82525050565b61098581610bad565b82525050565b600060208201905081810360008301526109a58184610836565b905092915050565b600060208201905081810360008301526109c781846108e4565b905092915050565b600060408201905081810360008301526109e981856108e4565b90506109f86020830184610827565b9392505050565b60006060820190508181036000830152610a1981866108e4565b9050610a286020830185610827565b8181036040830152610a3a81846108e4565b9050949350505050565b60006040820190508181036000830152610a5e81856108e4565b9050610a6d602083018461097c565b9392505050565b6000602082019050610a89600083018461097c565b92915050565b6000604082019050610aa4600083018561097c565b8181036020830152610ab681846108e4565b90509392505050565b6000610ac9610ada565b9050610ad58282610c2b565b919050565b6000604051905090565b600067ffffffffffffffff821115610aff57610afe610d03565b5b610b0882610d32565b9050602081019050919050565b6000819050602082019050919050565b600081519050919050565b600081519050919050565b6000602082019050919050565b600082825260208201905092915050565b600082825260208201905092915050565b600082825260208201905092915050565b6000610b8682610b8d565b9050919050565b600073ffffffffffffffffffffffffffffffffffffffff82169050919050565b6000819050919050565b82818337600083830152505050565b60005b83811015610be4578082015181840152602081019050610bc9565b83811115610bf3576000848401525b50505050565b60006002820490506001821680610c1157607f821691505b60208210811415610c2557610c24610cd4565b5b50919050565b610c3482610d32565b810181811067ffffffffffffffff82111715610c5357610c52610d03565b5b80604052505050565b6000610c6782610bad565b91507fffffffffffffffffffffffffffffffffffffffffffffffffffffffffffffffff821415610c9a57610c99610ca5565b5b600182019050919050565b7f4e487b7100000000000000000000000000000000000000000000000000000000600052601160045260246000fd5b7f4e487b7100000000000000000000000000000000000000000000000000000000600052602260045260246000fd5b7f4e487b7100000000000000000000000000000000000000000000000000000000600052604160045260246000fd5b6000601f19601f830116905091905056fea26469706673582212207f29c762464cb960ec80b4e9a7202cca16f5c4f77604ebe96cea76b542cbe72c64736f6c63430008040033",
	"linkReferences": {},
	"deployedLinkReferences": {}
}