{
	"_format": "hh-sol-artifact-1",
	"contractName": "WavePortal",
	"sourceName": "contracts/WavePortal.sol",
	"abi": [
		{
			"inputs": [],
			"stateMutability": "payable",
			"type": "constructor"
		},
		{
			"anonymous": false,
			"inputs": [
				{
					"indexed": true,
					"internalType": "address",
					"name": "from",
					"type": "address"
				},
				{
					"indexed": false,
					"internalType": "uint256",
					"name": "timestamp",
					"type": "uint256"
				},
				{
					"indexed": false,
					"internalType": "string",
					"name": "message",
					"type": "string"
				},
				{
					"indexed": false,
					"internalType": "string",
					"name": "url",
					"type": "string"
				}
			],
			"name": "NewWave",
			"type": "event"
		},
		{
			"anonymous": false,
			"inputs": [
				{
					"indexed": true,
					"internalType": "address",
					"name": "from",
					"type": "address"
				},
				{
					"indexed": false,
					"internalType": "uint256",
					"name": "timestamp",
					"type": "uint256"
				},
				{
					"indexed": false,
					"internalType": "string",
					"name": "message",
					"type": "string"
				}
			],
			"name": "YouWon",
			"type": "event"
		},
		{
			"inputs": [],
			"name": "getAllWaves",
			"outputs": [
				{
					"components": [
						{
							"internalType": "address",
							"name": "waver",
							"type": "address"
						},
						{
							"internalType": "string",
							"name": "message",
							"type": "string"
						},
						{
							"internalType": "string",
							"name": "url",
							"type": "string"
						},
						{
							"internalType": "uint256",
							"name": "timestamp",
							"type": "uint256"
						}
					],
					"internalType": "struct WavePortal.Wave[]",
					"name": "",
					"type": "tuple[]"
				}
			],
			"stateMutability": "view",
			"type": "function"
		},
		{
			"inputs": [],
			"name": "getTotalWaves",
			"outputs": [
				{
					"internalType": "uint256",
					"name": "",
					"type": "uint256"
				}
			],
			"stateMutability": "view",
			"type": "function"
		},
		{
			"inputs": [
				{
					"internalType": "address",
					"name": "",
					"type": "address"
				}
			],
			"name": "lastWavedAt",
			"outputs": [
				{
					"internalType": "uint256",
					"name": "",
					"type": "uint256"
				}
			],
			"stateMutability": "view",
			"type": "function"
		},
		{
			"inputs": [
				{
					"internalType": "string",
					"name": "message",
					"type": "string"
				}
			],
			"name": "visitorMessage",
			"outputs": [],
			"stateMutability": "view",
			"type": "function"
		},
		{
			"inputs": [
				{
					"internalType": "string",
					"name": "_message",
					"type": "string"
				},
				{
					"internalType": "string",
					"name": "_url",
					"type": "string"
				}
			],
			"name": "wave",
			"outputs": [],
			"stateMutability": "nonpayable",
			"type": "function"
		}
	],
	"bytecode": "0x60806040526200004f6040518060400160405280600581526020017f596f20796f0000000000000000000000000000000000000000000000000000008152506200007760201b62000a321760201c565b606444426200005f9190620001c4565b6200006b919062000261565b60018190555062000308565b62000117816040516024016200008e919062000184565b6040516020818303038152906040527f41304fac000000000000000000000000000000000000000000000000000000007bffffffffffffffffffffffffffffffffffffffffffffffffffffffff19166020820180517bffffffffffffffffffffffffffffffffffffffffffffffffffffffff83818316178352505050506200011a60201b60201c565b50565b60008151905060006a636f6e736f6c652e6c6f679050602083016000808483855afa5050505050565b60006200015082620001a8565b6200015c8185620001b3565b93506200016e8185602086016200022b565b6200017981620002f7565b840191505092915050565b60006020820190508181036000830152620001a0818462000143565b905092915050565b600081519050919050565b600082825260208201905092915050565b6000620001d18262000221565b9150620001de8362000221565b9250827fffffffffffffffffffffffffffffffffffffffffffffffffffffffffffffffff0382111562000216576200021562000299565b5b828201905092915050565b6000819050919050565b60005b838110156200024b5780820151818401526020810190506200022e565b838111156200025b576000848401525b50505050565b60006200026e8262000221565b91506200027b8362000221565b9250826200028e576200028d620002c8565b5b828206905092915050565b7f4e487b7100000000000000000000000000000000000000000000000000000000600052601160045260246000fd5b7f4e487b7100000000000000000000000000000000000000000000000000000000600052601260045260246000fd5b6000601f19601f8301169050919050565b61178380620003186000396000f3fe608060405234801561001057600080fd5b50600436106100575760003560e01c8063518729591461005c5780639a2cdc0814610078578063a42a466314610096578063bd43a908146100c6578063bf2e1560146100e4575b600080fd5b61007660048036038101906100719190610e55565b610100565b005b6100806107a9565b60405161008d919061124c565b60405180910390f35b6100b060048036038101906100ab9190610deb565b6107f4565b6040516100bd919061124c565b60405180910390f35b6100ce61080c565b6040516100db9190611103565b60405180910390f35b6100fe60048036038101906100f99190610e14565b6109ef565b005b42601e600260003373ffffffffffffffffffffffffffffffffffffffff1673ffffffffffffffffffffffffffffffffffffffff1681526020019081526020016000205461014d91906113a3565b1061018d576040517f08c379a0000000000000000000000000000000000000000000000000000000008152600401610184906111ec565b60405180910390fd5b42600260003373ffffffffffffffffffffffffffffffffffffffff1673ffffffffffffffffffffffffffffffffffffffff168152602001908152602001600020819055506000808154809291906101e3906114da565b91905055506102276040518060400160405280600c81526020017f257320686173207761766564000000000000000000000000000000000000000081525033610acb565b6000429050600360405180608001604052803373ffffffffffffffffffffffffffffffffffffffff16815260200185815260200184815260200183815250908060018154018082558091505060019003906000526020600020906004020160009091909190915060008201518160000160006101000a81548173ffffffffffffffffffffffffffffffffffffffff021916908373ffffffffffffffffffffffffffffffffffffffff16021790555060208201518160010190805190602001906102f1929190610ccb565b50604082015181600201908051906020019061030e929190610ccb565b506060820151816003015550506064600154424461032c91906113a3565b61033691906113a3565b6103409190611523565b6001819055506103876040518060400160405280601b81526020017f52616e646f6d20232067656e65726174656420736565643a2025640000000000815250600154610b67565b6103c76040518060400160405280600a81526020017f5f75726c206c65677468000000000000000000000000000000000000000000008152508351610b67565b600a600154111580156103db575060008251145b1561058e5761041f6040518060400160405280600781526020017f257320776f6e210000000000000000000000000000000000000000000000000081525033610acb565b6000655af3107a400090504781111561046d576040517f08c379a00000000000000000000000000000000000000000000000000000000081526004016104649061120c565b60405180910390fd5b60003373ffffffffffffffffffffffffffffffffffffffff1682604051610493906110ee565b60006040518083038185875af1925050503d80600081146104d0576040519150601f19603f3d011682016040523d82523d6000602084013e6104d5565b606091505b5050905080610519576040517f08c379a00000000000000000000000000000000000000000000000000000000081526004016105109061122c565b60405180910390fd5b60006040518060600160405280602581526020016117296025913990503373ffffffffffffffffffffffffffffffffffffffff167f4b5cf10948db3c5c79e7c25db102239a987377a5d5ca3ecdbd3eefcbea4f2037858360405161057e929190611267565b60405180910390a2505050610752565b6032600154111580156105a2575060008251115b15610751576105e66040518060400160405280600781526020017f257320776f6e210000000000000000000000000000000000000000000000000081525033610acb565b6000655af3107a4000905047811115610634576040517f08c379a000000000000000000000000000000000000000000000000000000000815260040161062b9061120c565b60405180910390fd5b60003373ffffffffffffffffffffffffffffffffffffffff168260405161065a906110ee565b60006040518083038185875af1925050503d8060008114610697576040519150601f19603f3d011682016040523d82523d6000602084013e61069c565b606091505b50509050806106e0576040517f08c379a00000000000000000000000000000000000000000000000000000000081526004016106d79061122c565b60405180910390fd5b60006040518060600160405280602581526020016117296025913990503373ffffffffffffffffffffffffffffffffffffffff167f4b5cf10948db3c5c79e7c25db102239a987377a5d5ca3ecdbd3eefcbea4f20378583604051610745929190611267565b60405180910390a25050505b5b3373ffffffffffffffffffffffffffffffffffffffff167f0646f10b0148fe8db9a43af10b6956b53e1478c47afc7132c17e243449dfd33982858560405161079c93929190611297565b60405180910390a2505050565b60006107ec6040518060400160405280601781526020017f5765206861766520256420746f74616c20776176657321000000000000000000815250600054610b67565b600054905090565b60026020528060005260406000206000915090505481565b60606003805480602002602001604051908101604052809291908181526020016000905b828210156109e657838290600052602060002090600402016040518060800160405290816000820160009054906101000a900473ffffffffffffffffffffffffffffffffffffffff1673ffffffffffffffffffffffffffffffffffffffff1673ffffffffffffffffffffffffffffffffffffffff1681526020016001820180546108b990611477565b80601f01602080910402602001604051908101604052809291908181526020018280546108e590611477565b80156109325780601f1061090757610100808354040283529160200191610932565b820191906000526020600020905b81548152906001019060200180831161091557829003601f168201915b5050505050815260200160028201805461094b90611477565b80601f016020809104026020016040519081016040528092919081815260200182805461097790611477565b80156109c45780601f10610999576101008083540402835291602001916109c4565b820191906000526020600020905b8154815290600101906020018083116109a757829003601f168201915b5050505050815260200160038201548152505081526020019060010190610830565b50505050905090565b610a2f6040518060400160405280601981526020017f257320686173206c6566742061206d6573736167653a202573000000000000008152503383610c03565b50565b610ac881604051602401610a469190611125565b6040516020818303038152906040527f41304fac000000000000000000000000000000000000000000000000000000007bffffffffffffffffffffffffffffffffffffffffffffffffffffffff19166020820180517bffffffffffffffffffffffffffffffffffffffffffffffffffffffff8381831617835250505050610ca2565b50565b610b638282604051602401610ae1929190611147565b6040516020818303038152906040527f319af333000000000000000000000000000000000000000000000000000000007bffffffffffffffffffffffffffffffffffffffffffffffffffffffff19166020820180517bffffffffffffffffffffffffffffffffffffffffffffffffffffffff8381831617835250505050610ca2565b5050565b610bff8282604051602401610b7d9291906111bc565b6040516020818303038152906040527f9710a9d0000000000000000000000000000000000000000000000000000000007bffffffffffffffffffffffffffffffffffffffffffffffffffffffff19166020820180517bffffffffffffffffffffffffffffffffffffffffffffffffffffffff8381831617835250505050610ca2565b5050565b610c9d838383604051602401610c1b93929190611177565b6040516020818303038152906040527fe0e9ad4f000000000000000000000000000000000000000000000000000000007bffffffffffffffffffffffffffffffffffffffffffffffffffffffff19166020820180517bffffffffffffffffffffffffffffffffffffffffffffffffffffffff8381831617835250505050610ca2565b505050565b60008151905060006a636f6e736f6c652e6c6f679050602083016000808483855afa5050505050565b828054610cd790611477565b90600052602060002090601f016020900481019282610cf95760008555610d40565b82601f10610d1257805160ff1916838001178555610d40565b82800160010185558215610d40579182015b82811115610d3f578251825591602001919060010190610d24565b5b509050610d4d9190610d51565b5090565b5b80821115610d6a576000816000905550600101610d52565b5090565b6000610d81610d7c84611301565b6112dc565b905082815260208101848484011115610d9957600080fd5b610da4848285611435565b509392505050565b600081359050610dbb81611711565b92915050565b600082601f830112610dd257600080fd5b8135610de2848260208601610d6e565b91505092915050565b600060208284031215610dfd57600080fd5b6000610e0b84828501610dac565b91505092915050565b600060208284031215610e2657600080fd5b600082013567ffffffffffffffff811115610e4057600080fd5b610e4c84828501610dc1565b91505092915050565b60008060408385031215610e6857600080fd5b600083013567ffffffffffffffff811115610e8257600080fd5b610e8e85828601610dc1565b925050602083013567ffffffffffffffff811115610eab57600080fd5b610eb785828601610dc1565b9150509250929050565b6000610ecd8383611066565b905092915050565b610ede816113f9565b82525050565b610eed816113f9565b82525050565b6000610efe82611342565b610f088185611365565b935083602082028501610f1a85611332565b8060005b85811015610f565784840389528151610f378582610ec1565b9450610f4283611358565b925060208a01995050600181019050610f1e565b50829750879550505050505092915050565b6000610f738261134d565b610f7d8185611381565b9350610f8d818560208601611444565b610f9681611610565b840191505092915050565b6000610fac8261134d565b610fb68185611392565b9350610fc6818560208601611444565b610fcf81611610565b840191505092915050565b6000610fe7602283611392565b9150610ff282611621565b604082019050919050565b600061100a603483611392565b915061101582611670565b604082019050919050565b600061102d602a83611392565b9150611038826116bf565b604082019050919050565b6000611050600083611376565b915061105b8261170e565b600082019050919050565b600060808301600083015161107e6000860182610ed5565b50602083015184820360208601526110968282610f68565b915050604083015184820360408601526110b08282610f68565b91505060608301516110c560608601826110d0565b508091505092915050565b6110d98161142b565b82525050565b6110e88161142b565b82525050565b60006110f982611043565b9150819050919050565b6000602082019050818103600083015261111d8184610ef3565b905092915050565b6000602082019050818103600083015261113f8184610fa1565b905092915050565b600060408201905081810360008301526111618185610fa1565b90506111706020830184610ee4565b9392505050565b600060608201905081810360008301526111918186610fa1565b90506111a06020830185610ee4565b81810360408301526111b28184610fa1565b9050949350505050565b600060408201905081810360008301526111d68185610fa1565b90506111e560208301846110df565b9392505050565b6000602082019050818103600083015261120581610fda565b9050919050565b6000602082019050818103600083015261122581610ffd565b9050919050565b6000602082019050818103600083015261124581611020565b9050919050565b600060208201905061126160008301846110df565b92915050565b600060408201905061127c60008301856110df565b818103602083015261128e8184610fa1565b90509392505050565b60006060820190506112ac60008301866110df565b81810360208301526112be8185610fa1565b905081810360408301526112d28184610fa1565b9050949350505050565b60006112e66112f7565b90506112f282826114a9565b919050565b6000604051905090565b600067ffffffffffffffff82111561131c5761131b6115e1565b5b61132582611610565b9050602081019050919050565b6000819050602082019050919050565b600081519050919050565b600081519050919050565b6000602082019050919050565b600082825260208201905092915050565b600081905092915050565b600082825260208201905092915050565b600082825260208201905092915050565b60006113ae8261142b565b91506113b98361142b565b9250827fffffffffffffffffffffffffffffffffffffffffffffffffffffffffffffffff038211156113ee576113ed611554565b5b828201905092915050565b60006114048261140b565b9050919050565b600073ffffffffffffffffffffffffffffffffffffffff82169050919050565b6000819050919050565b82818337600083830152505050565b60005b83811015611462578082015181840152602081019050611447565b83811115611471576000848401525b50505050565b6000600282049050600182168061148f57607f821691505b602082108114156114a3576114a26115b2565b5b50919050565b6114b282611610565b810181811067ffffffffffffffff821117156114d1576114d06115e1565b5b80604052505050565b60006114e58261142b565b91507fffffffffffffffffffffffffffffffffffffffffffffffffffffffffffffffff82141561151857611517611554565b5b600182019050919050565b600061152e8261142b565b91506115398361142b565b92508261154957611548611583565b5b828206905092915050565b7f4e487b7100000000000000000000000000000000000000000000000000000000600052601160045260246000fd5b7f4e487b7100000000000000000000000000000000000000000000000000000000600052601260045260246000fd5b7f4e487b7100000000000000000000000000000000000000000000000000000000600052602260045260246000fd5b7f4e487b7100000000000000000000000000000000000000000000000000000000600052604160045260246000fd5b6000601f19601f8301169050919050565b7f57616974203330207365636f6e647320666f7220796f7572206e65787420776160008201527f7665000000000000000000000000000000000000000000000000000000000000602082015250565b7f547279696e6720746f207769746864726177206d6f7265206d6f6e657920746860008201527f616e2074686520636f6e7472616374206861732e000000000000000000000000602082015250565b7f4661696c656420746f207769746864726177206d6f6e65792066726f6d20746860008201527f6520636f6e747261637400000000000000000000000000000000000000000000602082015250565b50565b61171a816113f9565b811461172557600080fd5b5056fe436f6e67726174756c6174696f6e732120596f7520776f6e3a20302e303030312045544821a26469706673582212203510cf21489d457e33f300935d40cd27eaccef07ae994a26f48eec424951567764736f6c63430008040033",
	"linkReferences": {},
	"deployedLinkReferences": {}
}