{
	"_format": "hh-sol-artifact-1",
	"contractName": "WavePortal",
	"sourceName": "contracts/WavePortal.sol",
	"abi": [
		{
			"inputs": [],
			"stateMutability": "nonpayable",
			"type": "constructor"
		},
		{
			"inputs": [],
			"name": "getTotalWaves",
			"outputs": [
				{
					"internalType": "uint256",
					"name": "",
					"type": "uint256"
				}
			],
			"stateMutability": "view",
			"type": "function"
		},
		{
			"inputs": [
				{
					"internalType": "string",
					"name": "message",
					"type": "string"
				}
			],
			"name": "visitorMessage",
			"outputs": [],
			"stateMutability": "view",
			"type": "function"
		},
		{
			"inputs": [],
			"name": "wave",
			"outputs": [],
			"stateMutability": "nonpayable",
			"type": "function"
		}
	],
	"bytecode": "0x608060405234801561001057600080fd5b506100596040518060400160405280600581526020017f596f20796f00000000000000000000000000000000000000000000000000000081525061005e60201b6101701760201c565b6101e1565b6100fa81604051602401610072919061015f565b6040516020818303038152906040527f41304fac000000000000000000000000000000000000000000000000000000007bffffffffffffffffffffffffffffffffffffffffffffffffffffffff19166020820180517bffffffffffffffffffffffffffffffffffffffffffffffffffffffff83818316178352505050506100fd60201b60201c565b50565b60008151905060006a636f6e736f6c652e6c6f679050602083016000808483855afa5050505050565b600061013182610181565b61013b818561018c565b935061014b81856020860161019d565b610154816101d0565b840191505092915050565b600060208201905081810360008301526101798184610126565b905092915050565b600081519050919050565b600082825260208201905092915050565b60005b838110156101bb5780820151818401526020810190506101a0565b838111156101ca576000848401525b50505050565b6000601f19601f8301169050919050565b6107fa806101f06000396000f3fe608060405234801561001057600080fd5b50600436106100415760003560e01c80636fe15b44146100465780639a2cdc0814610050578063bf2e15601461006e575b600080fd5b61004e61008a565b005b6100586100e2565b60405161006591906105d0565b60405180910390f35b61008860048036038101906100839190610471565b61012d565b005b60008081548092919061009c9061070c565b91905055506100e06040518060400160405280600c81526020017f257320686173207761766564000000000000000000000000000000000000000081525033610209565b565b60006101256040518060400160405280601781526020017f5765206861766520256420746f74616c207761766573210000000000000000008152506000546102a5565b600054905090565b61016d6040518060400160405280601981526020017f257320686173206c6566742061206d6573736167653a202573000000000000008152503383610341565b50565b610206816040516024016101849190610509565b6040516020818303038152906040527f41304fac000000000000000000000000000000000000000000000000000000007bffffffffffffffffffffffffffffffffffffffffffffffffffffffff19166020820180517bffffffffffffffffffffffffffffffffffffffffffffffffffffffff83818316178352505050506103e0565b50565b6102a1828260405160240161021f92919061052b565b6040516020818303038152906040527f319af333000000000000000000000000000000000000000000000000000000007bffffffffffffffffffffffffffffffffffffffffffffffffffffffff19166020820180517bffffffffffffffffffffffffffffffffffffffffffffffffffffffff83818316178352505050506103e0565b5050565b61033d82826040516024016102bb9291906105a0565b6040516020818303038152906040527f9710a9d0000000000000000000000000000000000000000000000000000000007bffffffffffffffffffffffffffffffffffffffffffffffffffffffff19166020820180517bffffffffffffffffffffffffffffffffffffffffffffffffffffffff83818316178352505050506103e0565b5050565b6103db8383836040516024016103599392919061055b565b6040516020818303038152906040527fe0e9ad4f000000000000000000000000000000000000000000000000000000007bffffffffffffffffffffffffffffffffffffffffffffffffffffffff19166020820180517bffffffffffffffffffffffffffffffffffffffffffffffffffffffff83818316178352505050506103e0565b505050565b60008151905060006a636f6e736f6c652e6c6f679050602083016000808483855afa5050505050565b600061041c61041784610610565b6105eb565b90508281526020810184848401111561043457600080fd5b61043f848285610699565b509392505050565b600082601f83011261045857600080fd5b8135610468848260208601610409565b91505092915050565b60006020828403121561048357600080fd5b600082013567ffffffffffffffff81111561049d57600080fd5b6104a984828501610447565b91505092915050565b6104bb8161065d565b82525050565b60006104cc82610641565b6104d6818561064c565b93506104e68185602086016106a8565b6104ef816107b3565b840191505092915050565b6105038161068f565b82525050565b6000602082019050818103600083015261052381846104c1565b905092915050565b6000604082019050818103600083015261054581856104c1565b905061055460208301846104b2565b9392505050565b6000606082019050818103600083015261057581866104c1565b905061058460208301856104b2565b818103604083015261059681846104c1565b9050949350505050565b600060408201905081810360008301526105ba81856104c1565b90506105c960208301846104fa565b9392505050565b60006020820190506105e560008301846104fa565b92915050565b60006105f5610606565b905061060182826106db565b919050565b6000604051905090565b600067ffffffffffffffff82111561062b5761062a610784565b5b610634826107b3565b9050602081019050919050565b600081519050919050565b600082825260208201905092915050565b60006106688261066f565b9050919050565b600073ffffffffffffffffffffffffffffffffffffffff82169050919050565b6000819050919050565b82818337600083830152505050565b60005b838110156106c65780820151818401526020810190506106ab565b838111156106d5576000848401525b50505050565b6106e4826107b3565b810181811067ffffffffffffffff8211171561070357610702610784565b5b80604052505050565b60006107178261068f565b91507fffffffffffffffffffffffffffffffffffffffffffffffffffffffffffffffff82141561074a57610749610755565b5b600182019050919050565b7f4e487b7100000000000000000000000000000000000000000000000000000000600052601160045260246000fd5b7f4e487b7100000000000000000000000000000000000000000000000000000000600052604160045260246000fd5b6000601f19601f830116905091905056fea26469706673582212206943202a14122fb199ecba4083024c5cad9df4665d838c6254c5510707e2896f64736f6c63430008040033",
	"linkReferences": {},
	"deployedLinkReferences": {}
}