{
	"_format": "hh-sol-artifact-1",
	"contractName": "WavePortal",
	"sourceName": "contracts/WavePortal.sol",
	"abi": [
		{
			"inputs": [],
			"stateMutability": "payable",
			"type": "constructor"
		},
		{
			"anonymous": false,
			"inputs": [
				{
					"indexed": true,
					"internalType": "address",
					"name": "from",
					"type": "address"
				},
				{
					"indexed": false,
					"internalType": "uint256",
					"name": "timestamp",
					"type": "uint256"
				},
				{
					"indexed": false,
					"internalType": "string",
					"name": "message",
					"type": "string"
				}
			],
			"name": "NewWave",
			"type": "event"
		},
		{
			"inputs": [],
			"name": "getAllWaves",
			"outputs": [
				{
					"components": [
						{
							"internalType": "address",
							"name": "waver",
							"type": "address"
						},
						{
							"internalType": "string",
							"name": "message",
							"type": "string"
						},
						{
							"internalType": "uint256",
							"name": "timestamp",
							"type": "uint256"
						}
					],
					"internalType": "struct WavePortal.Wave[]",
					"name": "",
					"type": "tuple[]"
				}
			],
			"stateMutability": "view",
			"type": "function"
		},
		{
			"inputs": [],
			"name": "getTotalWaves",
			"outputs": [
				{
					"internalType": "uint256",
					"name": "",
					"type": "uint256"
				}
			],
			"stateMutability": "view",
			"type": "function"
		},
		{
			"inputs": [
				{
					"internalType": "address",
					"name": "",
					"type": "address"
				}
			],
			"name": "lastWavedAt",
			"outputs": [
				{
					"internalType": "uint256",
					"name": "",
					"type": "uint256"
				}
			],
			"stateMutability": "view",
			"type": "function"
		},
		{
			"inputs": [
				{
					"internalType": "string",
					"name": "message",
					"type": "string"
				}
			],
			"name": "visitorMessage",
			"outputs": [],
			"stateMutability": "view",
			"type": "function"
		},
		{
			"inputs": [
				{
					"internalType": "string",
					"name": "_message",
					"type": "string"
				}
			],
			"name": "wave",
			"outputs": [],
			"stateMutability": "nonpayable",
			"type": "function"
		}
	],
	"bytecode": "0x60806040526200004f6040518060400160405280600581526020017f596f20796f0000000000000000000000000000000000000000000000000000008152506200007760201b620006f61760201c565b606444426200005f9190620001c4565b6200006b919062000261565b60018190555062000308565b62000117816040516024016200008e919062000184565b6040516020818303038152906040527f41304fac000000000000000000000000000000000000000000000000000000007bffffffffffffffffffffffffffffffffffffffffffffffffffffffff19166020820180517bffffffffffffffffffffffffffffffffffffffffffffffffffffffff83818316178352505050506200011a60201b60201c565b50565b60008151905060006a636f6e736f6c652e6c6f679050602083016000808483855afa5050505050565b60006200015082620001a8565b6200015c8185620001b3565b93506200016e8185602086016200022b565b6200017981620002f7565b840191505092915050565b60006020820190508181036000830152620001a0818462000143565b905092915050565b600081519050919050565b600082825260208201905092915050565b6000620001d18262000221565b9150620001de8362000221565b9250827fffffffffffffffffffffffffffffffffffffffffffffffffffffffffffffffff0382111562000216576200021562000299565b5b828201905092915050565b6000819050919050565b60005b838110156200024b5780820151818401526020810190506200022e565b838111156200025b576000848401525b50505050565b60006200026e8262000221565b91506200027b8362000221565b9250826200028e576200028d620002c8565b5b828206905092915050565b7f4e487b7100000000000000000000000000000000000000000000000000000000600052601160045260246000fd5b7f4e487b7100000000000000000000000000000000000000000000000000000000600052601260045260246000fd5b6000601f19601f8301169050919050565b61135780620003186000396000f3fe608060405234801561001057600080fd5b50600436106100575760003560e01c8063449d46c01461005c5780639a2cdc0814610078578063a42a466314610096578063bd43a908146100c6578063bf2e1560146100e4575b600080fd5b61007660048036038101906100719190610ad8565b610100565b005b6100806104ff565b60405161008d9190610e8a565b60405180910390f35b6100b060048036038101906100ab9190610aaf565b61054a565b6040516100bd9190610e8a565b60405180910390f35b6100ce610562565b6040516100db9190610d41565b60405180910390f35b6100fe60048036038101906100f99190610ad8565b6106b3565b005b42610384600260003373ffffffffffffffffffffffffffffffffffffffff1673ffffffffffffffffffffffffffffffffffffffff1681526020019081526020016000205461014e9190610f9c565b1061018e576040517f08c379a000000000000000000000000000000000000000000000000000000000815260040161018590610e4a565b60405180910390fd5b42600260003373ffffffffffffffffffffffffffffffffffffffff1673ffffffffffffffffffffffffffffffffffffffff168152602001908152602001600020819055506000808154809291906101e4906110d3565b91905055506102286040518060400160405280600c81526020017f25732068617320776176656400000000000000000000000000000000000000008152503361078f565b6000429050600360405180606001604052803373ffffffffffffffffffffffffffffffffffffffff16815260200184815260200183815250908060018154018082558091505060019003906000526020600020906003020160009091909190915060008201518160000160006101000a81548173ffffffffffffffffffffffffffffffffffffffff021916908373ffffffffffffffffffffffffffffffffffffffff16021790555060208201518160010190805190602001906102ec92919061098f565b506040820151816002015550506064600154424461030a9190610f9c565b6103149190610f9c565b61031e919061111c565b6001819055506103656040518060400160405280601b81526020017f52616e646f6d20232067656e65726174656420736565643a202564000000000081525060015461082b565b600a600154116104ab576103ae6040518060400160405280600781526020017f257320776f6e21000000000000000000000000000000000000000000000000008152503361078f565b6000655af3107a40009050478111156103fc576040517f08c379a00000000000000000000000000000000000000000000000000000000081526004016103f390610e2a565b60405180910390fd5b60003373ffffffffffffffffffffffffffffffffffffffff168260405161042290610d2c565b60006040518083038185875af1925050503d806000811461045f576040519150601f19603f3d011682016040523d82523d6000602084013e610464565b606091505b50509050806104a8576040517f08c379a000000000000000000000000000000000000000000000000000000000815260040161049f90610e6a565b60405180910390fd5b50505b3373ffffffffffffffffffffffffffffffffffffffff167f5f7e16dc676677766a70e9c5628aa6c54ddb8b6e5188e2ae1e1f17f1ffbea71682846040516104f3929190610ea5565b60405180910390a25050565b60006105426040518060400160405280601781526020017f5765206861766520256420746f74616c2077617665732100000000000000000081525060005461082b565b600054905090565b60026020528060005260406000206000915090505481565b60606003805480602002602001604051908101604052809291908181526020016000905b828210156106aa57838290600052602060002090600302016040518060600160405290816000820160009054906101000a900473ffffffffffffffffffffffffffffffffffffffff1673ffffffffffffffffffffffffffffffffffffffff1673ffffffffffffffffffffffffffffffffffffffff16815260200160018201805461060f90611070565b80601f016020809104026020016040519081016040528092919081815260200182805461063b90611070565b80156106885780601f1061065d57610100808354040283529160200191610688565b820191906000526020600020905b81548152906001019060200180831161066b57829003601f168201915b5050505050815260200160028201548152505081526020019060010190610586565b50505050905090565b6106f36040518060400160405280601981526020017f257320686173206c6566742061206d6573736167653a2025730000000000000081525033836108c7565b50565b61078c8160405160240161070a9190610d63565b6040516020818303038152906040527f41304fac000000000000000000000000000000000000000000000000000000007bffffffffffffffffffffffffffffffffffffffffffffffffffffffff19166020820180517bffffffffffffffffffffffffffffffffffffffffffffffffffffffff8381831617835250505050610966565b50565b61082782826040516024016107a5929190610d85565b6040516020818303038152906040527f319af333000000000000000000000000000000000000000000000000000000007bffffffffffffffffffffffffffffffffffffffffffffffffffffffff19166020820180517bffffffffffffffffffffffffffffffffffffffffffffffffffffffff8381831617835250505050610966565b5050565b6108c38282604051602401610841929190610dfa565b6040516020818303038152906040527f9710a9d0000000000000000000000000000000000000000000000000000000007bffffffffffffffffffffffffffffffffffffffffffffffffffffffff19166020820180517bffffffffffffffffffffffffffffffffffffffffffffffffffffffff8381831617835250505050610966565b5050565b6109618383836040516024016108df93929190610db5565b6040516020818303038152906040527fe0e9ad4f000000000000000000000000000000000000000000000000000000007bffffffffffffffffffffffffffffffffffffffffffffffffffffffff19166020820180517bffffffffffffffffffffffffffffffffffffffffffffffffffffffff8381831617835250505050610966565b505050565b60008151905060006a636f6e736f6c652e6c6f679050602083016000808483855afa5050505050565b82805461099b90611070565b90600052602060002090601f0160209004810192826109bd5760008555610a04565b82601f106109d657805160ff1916838001178555610a04565b82800160010185558215610a04579182015b82811115610a035782518255916020019190600101906109e8565b5b509050610a119190610a15565b5090565b5b80821115610a2e576000816000905550600101610a16565b5090565b6000610a45610a4084610efa565b610ed5565b905082815260208101848484011115610a5d57600080fd5b610a6884828561102e565b509392505050565b600081359050610a7f8161130a565b92915050565b600082601f830112610a9657600080fd5b8135610aa6848260208601610a32565b91505092915050565b600060208284031215610ac157600080fd5b6000610acf84828501610a70565b91505092915050565b600060208284031215610aea57600080fd5b600082013567ffffffffffffffff811115610b0457600080fd5b610b1084828501610a85565b91505092915050565b6000610b258383610cbe565b905092915050565b610b3681610ff2565b82525050565b610b4581610ff2565b82525050565b6000610b5682610f3b565b610b608185610f5e565b935083602082028501610b7285610f2b565b8060005b85811015610bae5784840389528151610b8f8582610b19565b9450610b9a83610f51565b925060208a01995050600181019050610b76565b50829750879550505050505092915050565b6000610bcb82610f46565b610bd58185610f7a565b9350610be581856020860161103d565b610bee81611209565b840191505092915050565b6000610c0482610f46565b610c0e8185610f8b565b9350610c1e81856020860161103d565b610c2781611209565b840191505092915050565b6000610c3f603483610f8b565b9150610c4a8261121a565b604082019050919050565b6000610c62602283610f8b565b9150610c6d82611269565b604082019050919050565b6000610c85602a83610f8b565b9150610c90826112b8565b604082019050919050565b6000610ca8600083610f6f565b9150610cb382611307565b600082019050919050565b6000606083016000830151610cd66000860182610b2d565b5060208301518482036020860152610cee8282610bc0565b9150506040830151610d036040860182610d0e565b508091505092915050565b610d1781611024565b82525050565b610d2681611024565b82525050565b6000610d3782610c9b565b9150819050919050565b60006020820190508181036000830152610d5b8184610b4b565b905092915050565b60006020820190508181036000830152610d7d8184610bf9565b905092915050565b60006040820190508181036000830152610d9f8185610bf9565b9050610dae6020830184610b3c565b9392505050565b60006060820190508181036000830152610dcf8186610bf9565b9050610dde6020830185610b3c565b8181036040830152610df08184610bf9565b9050949350505050565b60006040820190508181036000830152610e148185610bf9565b9050610e236020830184610d1d565b9392505050565b60006020820190508181036000830152610e4381610c32565b9050919050565b60006020820190508181036000830152610e6381610c55565b9050919050565b60006020820190508181036000830152610e8381610c78565b9050919050565b6000602082019050610e9f6000830184610d1d565b92915050565b6000604082019050610eba6000830185610d1d565b8181036020830152610ecc8184610bf9565b90509392505050565b6000610edf610ef0565b9050610eeb82826110a2565b919050565b6000604051905090565b600067ffffffffffffffff821115610f1557610f146111da565b5b610f1e82611209565b9050602081019050919050565b6000819050602082019050919050565b600081519050919050565b600081519050919050565b6000602082019050919050565b600082825260208201905092915050565b600081905092915050565b600082825260208201905092915050565b600082825260208201905092915050565b6000610fa782611024565b9150610fb283611024565b9250827fffffffffffffffffffffffffffffffffffffffffffffffffffffffffffffffff03821115610fe757610fe661114d565b5b828201905092915050565b6000610ffd82611004565b9050919050565b600073ffffffffffffffffffffffffffffffffffffffff82169050919050565b6000819050919050565b82818337600083830152505050565b60005b8381101561105b578082015181840152602081019050611040565b8381111561106a576000848401525b50505050565b6000600282049050600182168061108857607f821691505b6020821081141561109c5761109b6111ab565b5b50919050565b6110ab82611209565b810181811067ffffffffffffffff821117156110ca576110c96111da565b5b80604052505050565b60006110de82611024565b91507fffffffffffffffffffffffffffffffffffffffffffffffffffffffffffffffff8214156111115761111061114d565b5b600182019050919050565b600061112782611024565b915061113283611024565b9250826111425761114161117c565b5b828206905092915050565b7f4e487b7100000000000000000000000000000000000000000000000000000000600052601160045260246000fd5b7f4e487b7100000000000000000000000000000000000000000000000000000000600052601260045260246000fd5b7f4e487b7100000000000000000000000000000000000000000000000000000000600052602260045260246000fd5b7f4e487b7100000000000000000000000000000000000000000000000000000000600052604160045260246000fd5b6000601f19601f8301169050919050565b7f547279696e6720746f207769746864726177206d6f7265206d6f6e657920746860008201527f616e2074686520636f6e7472616374206861732e000000000000000000000000602082015250565b7f57616974203135206d696e7574657320666f7220796f7572206e65787420776160008201527f7665000000000000000000000000000000000000000000000000000000000000602082015250565b7f4661696c656420746f207769746864726177206d6f6e65792066726f6d20746860008201527f6520636f6e747261637400000000000000000000000000000000000000000000602082015250565b50565b61131381610ff2565b811461131e57600080fd5b5056fea2646970667358221220690933b6f6db4e5a265ecdc258ef11ff72a850ec1f75c1ea83b9b32d15d6539764736f6c63430008040033",
	"linkReferences": {},
	"deployedLinkReferences": {}
}